{
  "_format": "hh-sol-artifact-1",
  "contractName": "MyToken",
  "sourceName": "contracts/MyToken.sol",
  "abi": [
    {
      "inputs": [],
      "stateMutability": "nonpayable",
      "type": "constructor"
    },
    {
      "inputs": [
        {
          "internalType": "address",
          "name": "spender",
          "type": "address"
        },
        {
          "internalType": "uint256",
          "name": "allowance",
          "type": "uint256"
        },
        {
          "internalType": "uint256",
          "name": "needed",
          "type": "uint256"
        }
      ],
      "name": "ERC20InsufficientAllowance",
      "type": "error"
    },
    {
      "inputs": [
        {
          "internalType": "address",
          "name": "sender",
          "type": "address"
        },
        {
          "internalType": "uint256",
          "name": "balance",
          "type": "uint256"
        },
        {
          "internalType": "uint256",
          "name": "needed",
          "type": "uint256"
        }
      ],
      "name": "ERC20InsufficientBalance",
      "type": "error"
    },
    {
      "inputs": [
        {
          "internalType": "address",
          "name": "approver",
          "type": "address"
        }
      ],
      "name": "ERC20InvalidApprover",
      "type": "error"
    },
    {
      "inputs": [
        {
          "internalType": "address",
          "name": "receiver",
          "type": "address"
        }
      ],
      "name": "ERC20InvalidReceiver",
      "type": "error"
    },
    {
      "inputs": [
        {
          "internalType": "address",
          "name": "sender",
          "type": "address"
        }
      ],
      "name": "ERC20InvalidSender",
      "type": "error"
    },
    {
      "inputs": [
        {
          "internalType": "address",
          "name": "spender",
          "type": "address"
        }
      ],
      "name": "ERC20InvalidSpender",
      "type": "error"
    },
    {
      "inputs": [],
      "name": "EnforcedPause",
      "type": "error"
    },
    {
      "inputs": [],
      "name": "ExpectedPause",
      "type": "error"
    },
    {
      "inputs": [
        {
          "internalType": "address",
          "name": "owner",
          "type": "address"
        }
      ],
      "name": "OwnableInvalidOwner",
      "type": "error"
    },
    {
      "inputs": [
        {
          "internalType": "address",
          "name": "account",
          "type": "address"
        }
      ],
      "name": "OwnableUnauthorizedAccount",
      "type": "error"
    },
    {
      "anonymous": false,
      "inputs": [
        {
          "indexed": true,
          "internalType": "address",
          "name": "owner",
          "type": "address"
        },
        {
          "indexed": true,
          "internalType": "address",
          "name": "spender",
          "type": "address"
        },
        {
          "indexed": false,
          "internalType": "uint256",
          "name": "value",
          "type": "uint256"
        }
      ],
      "name": "Approval",
      "type": "event"
    },
    {
      "anonymous": false,
      "inputs": [
        {
          "indexed": true,
          "internalType": "address",
          "name": "previousOwner",
          "type": "address"
        },
        {
          "indexed": true,
          "internalType": "address",
          "name": "newOwner",
          "type": "address"
        }
      ],
      "name": "OwnershipTransferred",
      "type": "event"
    },
    {
      "anonymous": false,
      "inputs": [
        {
          "indexed": false,
          "internalType": "address",
          "name": "account",
          "type": "address"
        }
      ],
      "name": "Paused",
      "type": "event"
    },
    {
      "anonymous": false,
      "inputs": [
        {
          "indexed": true,
          "internalType": "address",
          "name": "from",
          "type": "address"
        },
        {
          "indexed": true,
          "internalType": "address",
          "name": "to",
          "type": "address"
        },
        {
          "indexed": false,
          "internalType": "uint256",
          "name": "value",
          "type": "uint256"
        }
      ],
      "name": "Transfer",
      "type": "event"
    },
    {
      "anonymous": false,
      "inputs": [
        {
          "indexed": false,
          "internalType": "address",
          "name": "account",
          "type": "address"
        }
      ],
      "name": "Unpaused",
      "type": "event"
    },
    {
      "inputs": [
        {
          "internalType": "address",
          "name": "owner",
          "type": "address"
        },
        {
          "internalType": "address",
          "name": "spender",
          "type": "address"
        }
      ],
      "name": "allowance",
      "outputs": [
        {
          "internalType": "uint256",
          "name": "",
          "type": "uint256"
        }
      ],
      "stateMutability": "view",
      "type": "function"
    },
    {
      "inputs": [
        {
          "internalType": "address",
          "name": "spender",
          "type": "address"
        },
        {
          "internalType": "uint256",
          "name": "value",
          "type": "uint256"
        }
      ],
      "name": "approve",
      "outputs": [
        {
          "internalType": "bool",
          "name": "",
          "type": "bool"
        }
      ],
      "stateMutability": "nonpayable",
      "type": "function"
    },
    {
      "inputs": [
        {
          "internalType": "address",
          "name": "account",
          "type": "address"
        }
      ],
      "name": "balanceOf",
      "outputs": [
        {
          "internalType": "uint256",
          "name": "",
          "type": "uint256"
        }
      ],
      "stateMutability": "view",
      "type": "function"
    },
    {
      "inputs": [
        {
          "internalType": "uint256",
          "name": "value",
          "type": "uint256"
        }
      ],
      "name": "burn",
      "outputs": [],
      "stateMutability": "nonpayable",
      "type": "function"
    },
    {
      "inputs": [
        {
          "internalType": "address",
          "name": "account",
          "type": "address"
        },
        {
          "internalType": "uint256",
          "name": "value",
          "type": "uint256"
        }
      ],
      "name": "burnFrom",
      "outputs": [],
      "stateMutability": "nonpayable",
      "type": "function"
    },
    {
      "inputs": [],
      "name": "decimals",
      "outputs": [
        {
          "internalType": "uint8",
          "name": "",
          "type": "uint8"
        }
      ],
      "stateMutability": "view",
      "type": "function"
    },
    {
      "inputs": [
        {
          "internalType": "address",
          "name": "to",
          "type": "address"
        },
        {
          "internalType": "uint256",
          "name": "amount",
          "type": "uint256"
        }
      ],
      "name": "mint",
      "outputs": [],
      "stateMutability": "nonpayable",
      "type": "function"
    },
    {
      "inputs": [],
      "name": "name",
      "outputs": [
        {
          "internalType": "string",
          "name": "",
          "type": "string"
        }
      ],
      "stateMutability": "view",
      "type": "function"
    },
    {
      "inputs": [],
      "name": "owner",
      "outputs": [
        {
          "internalType": "address",
          "name": "",
          "type": "address"
        }
      ],
      "stateMutability": "view",
      "type": "function"
    },
    {
      "inputs": [],
      "name": "pause",
      "outputs": [],
      "stateMutability": "nonpayable",
      "type": "function"
    },
    {
      "inputs": [],
      "name": "paused",
      "outputs": [
        {
          "internalType": "bool",
          "name": "",
          "type": "bool"
        }
      ],
      "stateMutability": "view",
      "type": "function"
    },
    {
      "inputs": [],
      "name": "renounceOwnership",
      "outputs": [],
      "stateMutability": "nonpayable",
      "type": "function"
    },
    {
      "inputs": [],
      "name": "symbol",
      "outputs": [
        {
          "internalType": "string",
          "name": "",
          "type": "string"
        }
      ],
      "stateMutability": "view",
      "type": "function"
    },
    {
      "inputs": [],
      "name": "totalSupply",
      "outputs": [
        {
          "internalType": "uint256",
          "name": "",
          "type": "uint256"
        }
      ],
      "stateMutability": "view",
      "type": "function"
    },
    {
      "inputs": [
        {
          "internalType": "address",
          "name": "to",
          "type": "address"
        },
        {
          "internalType": "uint256",
          "name": "value",
          "type": "uint256"
        }
      ],
      "name": "transfer",
      "outputs": [
        {
          "internalType": "bool",
          "name": "",
          "type": "bool"
        }
      ],
      "stateMutability": "nonpayable",
      "type": "function"
    },
    {
      "inputs": [
        {
          "internalType": "address",
          "name": "from",
          "type": "address"
        },
        {
          "internalType": "address",
          "name": "to",
          "type": "address"
        },
        {
          "internalType": "uint256",
          "name": "value",
          "type": "uint256"
        }
      ],
      "name": "transferFrom",
      "outputs": [
        {
          "internalType": "bool",
          "name": "",
          "type": "bool"
        }
      ],
      "stateMutability": "nonpayable",
      "type": "function"
    },
    {
      "inputs": [
        {
          "internalType": "address",
          "name": "newOwner",
          "type": "address"
        }
      ],
      "name": "transferOwnership",
      "outputs": [],
      "stateMutability": "nonpayable",
      "type": "function"
    },
    {
      "inputs": [],
      "name": "unpause",
      "outputs": [],
      "stateMutability": "nonpayable",
      "type": "function"
    }
  ],
  "bytecode": "0x60806040523480156200001157600080fd5b50336040518060400160405280600781526020017f4d79546f6b656e000000000000000000000000000000000000000000000000008152506040518060400160405280600381526020017f4d544b0000000000000000000000000000000000000000000000000000000000815250816003908162000090919062000848565b508060049081620000a2919062000848565b505050600073ffffffffffffffffffffffffffffffffffffffff168173ffffffffffffffffffffffffffffffffffffffff16036200011a5760006040517f1e4fbdf700000000000000000000000000000000000000000000000000000000815260040162000111919062000974565b60405180910390fd5b6200012b816200015d60201b60201c565b506000600560146101000a81548160ff021916908315150217905550620001576200022360201b60201c565b62000c56565b6000600560009054906101000a900473ffffffffffffffffffffffffffffffffffffffff16905081600560006101000a81548173ffffffffffffffffffffffffffffffffffffffff021916908373ffffffffffffffffffffffffffffffffffffffff1602179055508173ffffffffffffffffffffffffffffffffffffffff168173ffffffffffffffffffffffffffffffffffffffff167f8be0079c531659141344cd1fd0a4f28419497f9722a3daafe3b4186f6b6457e060405160405180910390a35050565b6200026533620002386200026760201b60201c565b60ff16600a62000249919062000b14565b620f424062000259919062000b65565b6200027060201b60201c565b565b60006012905090565b600073ffffffffffffffffffffffffffffffffffffffff168273ffffffffffffffffffffffffffffffffffffffff1603620002e55760006040517fec442f05000000000000000000000000000000000000000000000000000000008152600401620002dc919062000974565b60405180910390fd5b620002f960008383620002fd60201b60201c565b5050565b620003108383836200031560201b60201c565b505050565b620003256200033d60201b60201c565b620003388383836200038760201b60201c565b505050565b6200034d620005b760201b60201c565b1562000385576040517fd93c066500000000000000000000000000000000000000000000000000000000815260040160405180910390fd5b565b600073ffffffffffffffffffffffffffffffffffffffff168373ffffffffffffffffffffffffffffffffffffffff1603620003dd578060026000828254620003d0919062000bb0565b92505081905550620004b3565b60008060008573ffffffffffffffffffffffffffffffffffffffff1673ffffffffffffffffffffffffffffffffffffffff168152602001908152602001600020549050818110156200046c578381836040517fe450d38c000000000000000000000000000000000000000000000000000000008152600401620004639392919062000bfc565b60405180910390fd5b8181036000808673ffffffffffffffffffffffffffffffffffffffff1673ffffffffffffffffffffffffffffffffffffffff16815260200190815260200160002081905550505b600073ffffffffffffffffffffffffffffffffffffffff168273ffffffffffffffffffffffffffffffffffffffff1603620004fe57806002600082825403925050819055506200054b565b806000808473ffffffffffffffffffffffffffffffffffffffff1673ffffffffffffffffffffffffffffffffffffffff168152602001908152602001600020600082825401925050819055505b8173ffffffffffffffffffffffffffffffffffffffff168373ffffffffffffffffffffffffffffffffffffffff167fddf252ad1be2c89b69c2b068fc378daa952ba7f163c4a11628f55a4df523b3ef83604051620005aa919062000c39565b60405180910390a3505050565b6000600560149054906101000a900460ff16905090565b600081519050919050565b7f4e487b7100000000000000000000000000000000000000000000000000000000600052604160045260246000fd5b7f4e487b7100000000000000000000000000000000000000000000000000000000600052602260045260246000fd5b600060028204905060018216806200065057607f821691505b60208210810362000666576200066562000608565b5b50919050565b60008190508160005260206000209050919050565b60006020601f8301049050919050565b600082821b905092915050565b600060088302620006d07fffffffffffffffffffffffffffffffffffffffffffffffffffffffffffffffff8262000691565b620006dc868362000691565b95508019841693508086168417925050509392505050565b6000819050919050565b6000819050919050565b600062000729620007236200071d84620006f4565b620006fe565b620006f4565b9050919050565b6000819050919050565b620007458362000708565b6200075d620007548262000730565b8484546200069e565b825550505050565b600090565b6200077462000765565b620007818184846200073a565b505050565b5b81811015620007a9576200079d6000826200076a565b60018101905062000787565b5050565b601f821115620007f857620007c2816200066c565b620007cd8462000681565b81016020851015620007dd578190505b620007f5620007ec8562000681565b83018262000786565b50505b505050565b600082821c905092915050565b60006200081d60001984600802620007fd565b1980831691505092915050565b60006200083883836200080a565b9150826002028217905092915050565b6200085382620005ce565b67ffffffffffffffff8111156200086f576200086e620005d9565b5b6200087b825462000637565b62000888828285620007ad565b600060209050601f831160018114620008c05760008415620008ab578287015190505b620008b785826200082a565b86555062000927565b601f198416620008d0866200066c565b60005b82811015620008fa57848901518255600182019150602085019450602081019050620008d3565b868310156200091a578489015162000916601f8916826200080a565b8355505b6001600288020188555050505b505050505050565b600073ffffffffffffffffffffffffffffffffffffffff82169050919050565b60006200095c826200092f565b9050919050565b6200096e816200094f565b82525050565b60006020820190506200098b600083018462000963565b92915050565b7f4e487b7100000000000000000000000000000000000000000000000000000000600052601160045260246000fd5b60008160011c9050919050565b6000808291508390505b600185111562000a1f57808604811115620009f757620009f662000991565b5b600185161562000a075780820291505b808102905062000a1785620009c0565b9450620009d7565b94509492505050565b60008262000a3a576001905062000b0d565b8162000a4a576000905062000b0d565b816001811462000a63576002811462000a6e5762000aa4565b600191505062000b0d565b60ff84111562000a835762000a8262000991565b5b8360020a91508482111562000a9d5762000a9c62000991565b5b5062000b0d565b5060208310610133831016604e8410600b841016171562000ade5782820a90508381111562000ad85762000ad762000991565b5b62000b0d565b62000aed8484846001620009cd565b9250905081840481111562000b075762000b0662000991565b5b81810290505b9392505050565b600062000b2182620006f4565b915062000b2e83620006f4565b925062000b5d7fffffffffffffffffffffffffffffffffffffffffffffffffffffffffffffffff848462000a28565b905092915050565b600062000b7282620006f4565b915062000b7f83620006f4565b925082820262000b8f81620006f4565b9150828204841483151762000ba95762000ba862000991565b5b5092915050565b600062000bbd82620006f4565b915062000bca83620006f4565b925082820190508082111562000be55762000be462000991565b5b92915050565b62000bf681620006f4565b82525050565b600060608201905062000c13600083018662000963565b62000c22602083018562000beb565b62000c31604083018462000beb565b949350505050565b600060208201905062000c50600083018462000beb565b92915050565b6114d88062000c666000396000f3fe608060405234801561001057600080fd5b50600436106101165760003560e01c806370a08231116100a25780638da5cb5b116100715780638da5cb5b1461029557806395d89b41146102b3578063a9059cbb146102d1578063dd62ed3e14610301578063f2fde38b1461033157610116565b806370a0823114610235578063715018a61461026557806379cc67901461026f5780638456cb591461028b57610116565b8063313ce567116100e9578063313ce567146101b75780633f4ba83a146101d557806340c10f19146101df57806342966c68146101fb5780635c975abb1461021757610116565b806306fdde031461011b578063095ea7b31461013957806318160ddd1461016957806323b872dd14610187575b600080fd5b61012361034d565b60405161013091906110ff565b60405180910390f35b610153600480360381019061014e91906111ba565b6103df565b6040516101609190611215565b60405180910390f35b610171610402565b60405161017e919061123f565b60405180910390f35b6101a1600480360381019061019c919061125a565b61040c565b6040516101ae9190611215565b60405180910390f35b6101bf61043b565b6040516101cc91906112c9565b60405180910390f35b6101dd610444565b005b6101f960048036038101906101f491906111ba565b610456565b005b610215600480360381019061021091906112e4565b61046c565b005b61021f610480565b60405161022c9190611215565b60405180910390f35b61024f600480360381019061024a9190611311565b610497565b60405161025c919061123f565b60405180910390f35b61026d6104df565b005b610289600480360381019061028491906111ba565b6104f3565b005b610293610513565b005b61029d610525565b6040516102aa919061134d565b60405180910390f35b6102bb61054f565b6040516102c891906110ff565b60405180910390f35b6102eb60048036038101906102e691906111ba565b6105e1565b6040516102f89190611215565b60405180910390f35b61031b60048036038101906103169190611368565b610604565b604051610328919061123f565b60405180910390f35b61034b60048036038101906103469190611311565b61068b565b005b60606003805461035c906113d7565b80601f0160208091040260200160405190810160405280929190818152602001828054610388906113d7565b80156103d55780601f106103aa576101008083540402835291602001916103d5565b820191906000526020600020905b8154815290600101906020018083116103b857829003601f168201915b5050505050905090565b6000806103ea610711565b90506103f7818585610719565b600191505092915050565b6000600254905090565b600080610417610711565b905061042485828561072b565b61042f8585856107bf565b60019150509392505050565b60006012905090565b61044c6108b3565b61045461093a565b565b61045e6108b3565b610468828261099d565b5050565b61047d610477610711565b82610a1f565b50565b6000600560149054906101000a900460ff16905090565b60008060008373ffffffffffffffffffffffffffffffffffffffff1673ffffffffffffffffffffffffffffffffffffffff168152602001908152602001600020549050919050565b6104e76108b3565b6104f16000610aa1565b565b610505826104ff610711565b8361072b565b61050f8282610a1f565b5050565b61051b6108b3565b610523610b67565b565b6000600560009054906101000a900473ffffffffffffffffffffffffffffffffffffffff16905090565b60606004805461055e906113d7565b80601f016020809104026020016040519081016040528092919081815260200182805461058a906113d7565b80156105d75780601f106105ac576101008083540402835291602001916105d7565b820191906000526020600020905b8154815290600101906020018083116105ba57829003601f168201915b5050505050905090565b6000806105ec610711565b90506105f98185856107bf565b600191505092915050565b6000600160008473ffffffffffffffffffffffffffffffffffffffff1673ffffffffffffffffffffffffffffffffffffffff16815260200190815260200160002060008373ffffffffffffffffffffffffffffffffffffffff1673ffffffffffffffffffffffffffffffffffffffff16815260200190815260200160002054905092915050565b6106936108b3565b600073ffffffffffffffffffffffffffffffffffffffff168173ffffffffffffffffffffffffffffffffffffffff16036107055760006040517f1e4fbdf70000000000000000000000000000000000000000000000000000000081526004016106fc919061134d565b60405180910390fd5b61070e81610aa1565b50565b600033905090565b6107268383836001610bca565b505050565b60006107378484610604565b90507fffffffffffffffffffffffffffffffffffffffffffffffffffffffffffffffff81146107b957818110156107a9578281836040517ffb8f41b20000000000000000000000000000000000000000000000000000000081526004016107a093929190611408565b60405180910390fd5b6107b884848484036000610bca565b5b50505050565b600073ffffffffffffffffffffffffffffffffffffffff168373ffffffffffffffffffffffffffffffffffffffff16036108315760006040517f96c6fd1e000000000000000000000000000000000000000000000000000000008152600401610828919061134d565b60405180910390fd5b600073ffffffffffffffffffffffffffffffffffffffff168273ffffffffffffffffffffffffffffffffffffffff16036108a35760006040517fec442f0500000000000000000000000000000000000000000000000000000000815260040161089a919061134d565b60405180910390fd5b6108ae838383610da1565b505050565b6108bb610711565b73ffffffffffffffffffffffffffffffffffffffff166108d9610525565b73ffffffffffffffffffffffffffffffffffffffff1614610938576108fc610711565b6040517f118cdaa700000000000000000000000000000000000000000000000000000000815260040161092f919061134d565b60405180910390fd5b565b610942610db1565b6000600560146101000a81548160ff0219169083151502179055507f5db9ee0a495bf2e6ff9c91a7834c1ba4fdd244a5e8aa4e537bd38aeae4b073aa610986610711565b604051610993919061134d565b60405180910390a1565b600073ffffffffffffffffffffffffffffffffffffffff168273ffffffffffffffffffffffffffffffffffffffff1603610a0f5760006040517fec442f05000000000000000000000000000000000000000000000000000000008152600401610a06919061134d565b60405180910390fd5b610a1b60008383610da1565b5050565b600073ffffffffffffffffffffffffffffffffffffffff168273ffffffffffffffffffffffffffffffffffffffff1603610a915760006040517f96c6fd1e000000000000000000000000000000000000000000000000000000008152600401610a88919061134d565b60405180910390fd5b610a9d82600083610da1565b5050565b6000600560009054906101000a900473ffffffffffffffffffffffffffffffffffffffff16905081600560006101000a81548173ffffffffffffffffffffffffffffffffffffffff021916908373ffffffffffffffffffffffffffffffffffffffff1602179055508173ffffffffffffffffffffffffffffffffffffffff168173ffffffffffffffffffffffffffffffffffffffff167f8be0079c531659141344cd1fd0a4f28419497f9722a3daafe3b4186f6b6457e060405160405180910390a35050565b610b6f610df1565b6001600560146101000a81548160ff0219169083151502179055507f62e78cea01bee320cd4e420270b5ea74000d11b0c9f74754ebdbfc544b05a258610bb3610711565b604051610bc0919061134d565b60405180910390a1565b600073ffffffffffffffffffffffffffffffffffffffff168473ffffffffffffffffffffffffffffffffffffffff1603610c3c5760006040517fe602df05000000000000000000000000000000000000000000000000000000008152600401610c33919061134d565b60405180910390fd5b600073ffffffffffffffffffffffffffffffffffffffff168373ffffffffffffffffffffffffffffffffffffffff1603610cae5760006040517f94280d62000000000000000000000000000000000000000000000000000000008152600401610ca5919061134d565b60405180910390fd5b81600160008673ffffffffffffffffffffffffffffffffffffffff1673ffffffffffffffffffffffffffffffffffffffff16815260200190815260200160002060008573ffffffffffffffffffffffffffffffffffffffff1673ffffffffffffffffffffffffffffffffffffffff168152602001908152602001600020819055508015610d9b578273ffffffffffffffffffffffffffffffffffffffff168473ffffffffffffffffffffffffffffffffffffffff167f8c5be1e5ebec7d5bd14f71427d1e84f3dd0314c0f7b2291e5b200ac8c7c3b92584604051610d92919061123f565b60405180910390a35b50505050565b610dac838383610e32565b505050565b610db9610480565b610def576040517f8dfc202b00000000000000000000000000000000000000000000000000000000815260040160405180910390fd5b565b610df9610480565b15610e30576040517fd93c066500000000000000000000000000000000000000000000000000000000815260040160405180910390fd5b565b610e3a610df1565b610e45838383610e4a565b505050565b600073ffffffffffffffffffffffffffffffffffffffff168373ffffffffffffffffffffffffffffffffffffffff1603610e9c578060026000828254610e90919061146e565b92505081905550610f6f565b60008060008573ffffffffffffffffffffffffffffffffffffffff1673ffffffffffffffffffffffffffffffffffffffff16815260200190815260200160002054905081811015610f28578381836040517fe450d38c000000000000000000000000000000000000000000000000000000008152600401610f1f93929190611408565b60405180910390fd5b8181036000808673ffffffffffffffffffffffffffffffffffffffff1673ffffffffffffffffffffffffffffffffffffffff16815260200190815260200160002081905550505b600073ffffffffffffffffffffffffffffffffffffffff168273ffffffffffffffffffffffffffffffffffffffff1603610fb85780600260008282540392505081905550611005565b806000808473ffffffffffffffffffffffffffffffffffffffff1673ffffffffffffffffffffffffffffffffffffffff168152602001908152602001600020600082825401925050819055505b8173ffffffffffffffffffffffffffffffffffffffff168373ffffffffffffffffffffffffffffffffffffffff167fddf252ad1be2c89b69c2b068fc378daa952ba7f163c4a11628f55a4df523b3ef83604051611062919061123f565b60405180910390a3505050565b600081519050919050565b600082825260208201905092915050565b60005b838110156110a957808201518184015260208101905061108e565b60008484015250505050565b6000601f19601f8301169050919050565b60006110d18261106f565b6110db818561107a565b93506110eb81856020860161108b565b6110f4816110b5565b840191505092915050565b6000602082019050818103600083015261111981846110c6565b905092915050565b600080fd5b600073ffffffffffffffffffffffffffffffffffffffff82169050919050565b600061115182611126565b9050919050565b61116181611146565b811461116c57600080fd5b50565b60008135905061117e81611158565b92915050565b6000819050919050565b61119781611184565b81146111a257600080fd5b50565b6000813590506111b48161118e565b92915050565b600080604083850312156111d1576111d0611121565b5b60006111df8582860161116f565b92505060206111f0858286016111a5565b9150509250929050565b60008115159050919050565b61120f816111fa565b82525050565b600060208201905061122a6000830184611206565b92915050565b61123981611184565b82525050565b60006020820190506112546000830184611230565b92915050565b60008060006060848603121561127357611272611121565b5b60006112818682870161116f565b93505060206112928682870161116f565b92505060406112a3868287016111a5565b9150509250925092565b600060ff82169050919050565b6112c3816112ad565b82525050565b60006020820190506112de60008301846112ba565b92915050565b6000602082840312156112fa576112f9611121565b5b6000611308848285016111a5565b91505092915050565b60006020828403121561132757611326611121565b5b60006113358482850161116f565b91505092915050565b61134781611146565b82525050565b6000602082019050611362600083018461133e565b92915050565b6000806040838503121561137f5761137e611121565b5b600061138d8582860161116f565b925050602061139e8582860161116f565b9150509250929050565b7f4e487b7100000000000000000000000000000000000000000000000000000000600052602260045260246000fd5b600060028204905060018216806113ef57607f821691505b602082108103611402576114016113a8565b5b50919050565b600060608201905061141d600083018661133e565b61142a6020830185611230565b6114376040830184611230565b949350505050565b7f4e487b7100000000000000000000000000000000000000000000000000000000600052601160045260246000fd5b600061147982611184565b915061148483611184565b925082820190508082111561149c5761149b61143f565b5b9291505056fea26469706673582212205a8d54f566d257760c06ded74df6f244146718d91c3beecfcdeb9295647d28fd64736f6c63430008140033",
  "linkReferences": {},
  "deployedLinkReferences": {}
}